:020000040000fa
:080000000002040000000000f2
:020000040000fa
:100400002fe32000007f2200000188000000000090
:100410000c000700c0742100010020001f0007002d
:10042000000020000000e000020032000000020096
:100430000000000040100200000000000040da0050
:100440000000fe004440a900a00320000000e000de
:100450000300320000002000a00188004440a800f2
:1004600000000600f03fb1000180b1000600350039
:10047000ee03090000000000403fb1000180b10020
:10048000fbff3d001000b000203fb000020035002f
:1004900000800900000000000000060091018800b3
:1004a000800078000000eb0015003700e28040007b
:1004b00032a0b4009101ba00e280400032a0b40042
:1004c0009102ba00e280400032a0b4000002eb00ca
:1004d000472bde00f507b200602ce10004003a0073
:1004e0000059eb008301e900fdff3e0004003700e6
:1004f0006128e100010032000082eb0004000700e7
:100500001101ba000200e000e8ff3a000000060016
:100510003159ba008301e9000c0032002159ba00b8
:100520008301e900080032000400e00003003a0003
:10053000e280400032a0b400f5ff370011d9ba00c4
:100540008301e900faff3a008100e800e180400001
:1005500032a0b400000006000a00fa0044002000a7
:10056000b4bf9f00c0bf9f00d2bf9f00e3bf9f00ea
:10057000f1bf9f006a80570000c0da005fb89700a3
:10058000efb897000080fa00000006000a00fa00a9
:1005900080017800e20f500028003e00706d80005e
:1005a000e10f500008003200802320000000e0002e
:1005b00005003200042320002523200046232000cc
:1005c000800178000400370004222000252220004a
:1005d0004622200083222000144090000004e00006
:1005e000040035008009eb00144090000074a00066
:1005f00010429800154090000028a30003003a0024
:10060000154090000024a000904298008001eb006b
:1006100007003700154090000008a300fdff3200de
:1006200063c078000000fb00000b78008301e80045
:10063000828f5100f7ff3a00080037003000200099
:10064000b0bf9f00c3bf9f00d1bf9f00e2bf9f000c
:100650006a80570000c0da006fb997000200780086
:100660000080fa00000006000a00fa0011002000d5
:10067000b1bf9f00c0bf9f006a80570000c0da0072
:100680004fb897000080fa00000006000a00fa0048
:1006900051002000b1bf9f00c0bf9f006a8057007b
:1006a00000c0da005fb897000080fa000000060082
:1006b000889fbe0080047800806d80000000e0000c
:1006c00003003a00100007000000e0000a003500b7
:1006d000806d80000900e00002003a00000478000c
:1006e00006003700000478000900400006000700fb
:1006f0000000e00001003d000084eb0008007800ed
:100700004f04be0000000600800078000000e000fa
:1007100004003a0020db2000806d88000101780091
:10072000060037000081eb0020e32000808f50009e
:1007300002003e00816d88000001eb00020078009d
:1007400000000600889fbe008a9fbe000105780059
:100750000100e0000400350008003c000000e0005b
:10076000200032000500370060001000e080180013
:1007700002003b0001f02c001a0037000004be000c
:100780006011b8006b0920000982cf000200390017
:100790000882cf000441b000694252000e003200ce
:1007a00008003b0082817100610164008904d1006e
:1007b0000884d3008b05e8000442e800f9ff3a0002
:1007c000050037000804440089844c008b05e900cb
:1007d0000442e900fbff3a00080107000af0a70005
:1007e00001f0a0004f05be004f04be00000006004f
:1007f000889fbe008a9fbe008c1f780025010700dd
:100800002c01330003866c006450e10024003200a8
:100810006420e100270032006150e1002200320034
:100820006120e100210032008b854200eb07b1001e
:100830000134b800003ab8000804420089844a0034
:10084000013ab8000030b8008880400009014a0031
:10085000040033000000400081804800020149008c
:100860008b05e900c909dd00830170000100320039
:1008700013002000c814de004814dd004709de0024
:100880001200b200c808de0008847000db00070018
:1008900001f0a1000cf0a70001f0a0000e0137004c
:1008a0006120e100100132000801be000200be001c
:1008b000f7ff37006150e100fcff3a000a01370002
:1008c000889fbe008a9fbe008c1f7800f100070041
:1008d000f800330003866c006450e1002e00320003
:1008e0006420e100330032006150e1002f0032004b
:1008f0006120e1003100320085855500eb07b00032
:100900000900200008042000050037000804440006
:1009100089844c000a0031000603430087834b00a2
:100920000001530081815b00f8ff33000203be0029
:100930000800a0000804440089844c00f6ff390038
:10094000c639dd008301730001003200130020006e
:100950008904d1000884d3000998a300050032005f
:100960000800a7000300a0008904d1000884d30078
:100970008b05e8008904d1000884d3000001eb0056
:100980000281d2009d00070001f0a1000cf0a70039
:1009900001f0a000d00037006420e100d200320056
:1009a0000801be000200be00f7ff37006120e10031
:1009b000cd0032006000b800f3ff370000002000d7
:1009c00001f82700f0ff37006022b800060220007f
:1009d0000000d0008180d2000482d2008582d20043
:1009e0000000a0000202520083825a00030031007e
:1009f0000202420083824a000000a1000603e900cf
:100a0000f3ff3a000000060003f0a200889fbe003a
:100a10008a9fbe008c1f78009e000700a50033004f
:100a20006450e1004f0032006420e10052003200c7
:100a300003826c0007003b000905d0000306d000cc
:100a4000820f54000c065d000200390002003200e3
:100a500089017800030678008582550004003d0076
:100a60000003fd008103fd008502ea008b85420042
:100a7000840f720002003b0060001000e08018004c
:100a80006011b8000005eb007a28e1000a00390087
:100a900006007800c75ddd00f707b20087807500ab
:100aa0002d003700828171000a0178006105600025
:100ab0008180d1000080d3008502e900f9ff3b006e
:100ac000060440008784480002003b0060041400d4
:100ad000e0841c000988a300070032008a817100ad
:100ae00082817100610164008904d1000884d3000f
:100af0008b05e800170037000978a30013003a00bf
:100b00000b00e000130034008b05e90008044400ea
:100b100089844c000a4474000978a3000d003a004f
:100b20000b00e000070034008b05e90008044400d6
:100b300089844c0001003a000b0020000978a300d2
:100b4000f7ff32000001eb000200370082817100e4
:100b50000a017800290007000cf0a70001f0a000ae
:100b60005d0037006420e10002003a00838f6c00d2
:100b70005d0033000801be000200be0056003700d1
:100b8000f4ff2f005b0037001400200059003700ed
:100b90000001be00720007000470a70003f0a1006e
:100ba00003f8a30013003a006509b10010003200f9
:100bb000090035006928e100020035000100280025
:100bc0000000050000004000818048008502e90027
:100bd000fcff3a0000000600f88f420005003500d7
:100be0008100d1000080d3008502e800fcff3a00bc
:100bf000000006008000eb000000050081002000de
:100c0000618055000b003d000b00200061fe2f00ad
:100c10000100e1001d003400828171006101640067
:100c20008904d1000884d3000000e800faff3a00ec
:100c30007100200061006400030070000200600089
:100c40000900320061044400e0844c000988a500da
:100c5000050032008b05e8006808e10002003a0058
:100c60008904d1000884d300f20f20000258e1006b
:100c700005003d00c75ddd00f907b2008980750001
:100c800008007800000006000bf827008b007800b1
:100c9000000005000004be00310007000003be0094
:100ca0000405be000200be002d000700844f750041
:100cb000000006000200be006450e100050036009e
:100cc0006420e100020036000968a30001003a0038
:100cd0000800be000160a0004f0678004f05be006e
:100ce0004f04be0000000600f0ff2f00f1ff2700b8
:100cf000f9ff3700889fbe008a9fbe00841f7800de
:100d0000e4ff07004f00780011003300f0ff2f00d0
:100d1000838f6c0006003b00040565000a00a700f5
:100d20000800370009f0a600100020000800370076
:100d3000820f5400838f5c000300390010002000f4
:100d400001003e000000200009f0a7000000ea00ba
:100d50004f05be004f04be000000e000000006008a
:100d6000c70ade00f107b200f50fb200080032003a
:100d7000e1cf4200020032000170a0002400050013
:100d8000810f7000010032000408050044000500d6
:100d9000810f700002003a00140005008502e9008e
:100da0000000400081c04800fcff3b000170a00033
:100db0002400050084e0a900e7416000c419dd00bb
:100dc000710a200091407800f2c8b30082c0600030
:100dd00083c070008000fd00a7e0b7008000fd0028
:100de000680060004300de004700dd00410920008c
:100df000914078000174a10080c07000010078006b
:100e000094e0b700000006003008880000000600eb
:100e10000621ef0061088800800888001061a900a1
:100e200000000600800078000001780030c2bf009a
:100e300066406000e64f500010003a0005003700a1
:100e400033c2bf000018a300fdff3a00a2118800c2
:100e50008180e800110178000200e000f8ff3a000c
:100e60000000060033c2bf000018a300fdff3a00d7
:100e70000100fb00a01188000201e8009240780008
:100e80000104e000f7ff3a0000000600800078004f
:100e90000001780020c2bf0066406000e64f5000ad
:100ea00010003a000500370023c2bf000018a3005d
:100eb000fdff3a00221188008180e80011017800ce
:100ec0000200e000f8ff3a000000060023c2bf0065
:100ed0000018a300fdff3a000100fb00201188006c
:100ee0000201e800924078000104e000f7ff3a00b8
:100ef0000000060021e2a9009560a9009580a900e4
:100f00008560a9008580a900000006008560a90011
:100f10008580a900e7416000c419dd00910a200026
:100f200091407800f2c8b30082c0600083c07000b6
:100f30008000fd00a9e0b7008000fd00800178007e
:100f40000307b200c419de00a10a20009140780016
:100f500082cfb30082c0600083c070008000fd00bb
:100f6000aae0b7008000fd00680160004311de00c8
:100f70004311dd0051092000914078000134a100a7
:100f800082c070008000fd0095e0b7008000fd0089
:100f90000008b2004700de004400dd0051092000d7
:100fa000914078000144a10080c0700001007800e9
:100fb00095e0b7000000060042118800001188008b
:100fc000111188000000060031e2a90097c0a900b5
:100fd00097e0a90087c0a90087e0a90000000600eb
:100fe00087c0a90087e0a900e7416000310b20001d
:100ff0009140780082cfb30082c0600083c070004f
:101000008000fd00b3e0b7008000fd0001c7b30021
:1010100081416000310b200091407800f2c8b3009c
:1010200082c0600083c070008000fd00b3e0b700a4
:101030008000fd00680160004311de004611dd0004
:1010400071092000914078000164a10082c0700005
:101050008000fd0097e0b7008000fd000008b200ae
:101060004700de004700dd00710920009140780054
:101070000174a10080c070000100780097e0b70003
:1010800000000600c21188008011880091118800bc
:10109000000006008b40a900e7416000110c200011
:1010a0009140780082cfb30082c0600083c070009e
:1010b0008000fd00c1e0b7008000fd006800600016
:1010c0004300de004200dd00b109200091407800bd
:1010d0000124a10080c07000010078009be0b700ef
:1010e00000000600e1e1a900f2ff22000201600019
:1010f000020f88004b00de00614060004300dd000d
:10110000121e2000124178000234a100004171003b
:1011100002007800e1e1b700110f8800000006002e
:101120008d60a900e7416000c419dd00910c20002a
:1011300091407800f2c8b30082c0600083c07000a4
:101140008000fd00c9e0b7008000fd00680060007d
:101150004300de004300dd00d1092000914078000b
:101160000134a10080c07000010078009de0b7004c
:1011700000000600f1e1a900f2ff22000201600078
:10118000820f88004b00de00614060004300dd00fc
:10119000121f2000124178000234a10000417100aa
:1011a00002007800f1e1b700910f8800000006000e
:1011b000889fbe000004be00060037000804e80057
:1011c0000000fb008900780012000700e10f4000da
:1011d00004003200184078000004e000f7ff3a00f5
:1011e0000000eb004f04be0000000600881f7800de
:1011f00021d52000eeff07000004780021d5200053
:10120000a000200003000700080078004f047800c9
:1012100000000600889fbe000001780001047800ed
:10122000b10090000118a3003d0032000198a30016
:1012300003003a00180090000000e00038003a0077
:101240000190a0003104980082047800f90fb200e8
:10125000180090000000e00002003a002800900012
:10126000000c78003800900000b8a300060032009f
:1012700000a8a30004003200210020006011b80083
:101280000800780057000700b800900001007800bf
:1012900000b0a10030049800ea8f540005003a0025
:1012a0000178a30003003a0088007800d0002000f5
:1012b000d8ff07009800900058009000808f5000e1
:1012c0000b0032000100e8001004980018007800bc
:1012d00009587800000c780011c0b30060da2000d3
:1012e00001487800ea8f5400060032000f003700f2
:1012f0008800780009407800d40007008004780056
:101300000a003700380090000088a3000600320071
:1013100008007800a3000700e10f400002003a0037
:101320008084eb0001003700a9002000090078004c
:101330004f04be0000000600881f7800106a80007d
:101340000000e000010032000000010068d420002d
:1013500008007800010107006c04440060da2000f6
:10136000800f5400faff3a004f0478000000060096
:10137000881f7800000478004000900011002000d1
:101380006011b80074fc07000001be001800900056
:101390000000e00002003d000000eb001004980097
:1013a000280090000000e0000800320038009000a3
:1013b0000098a3000500320018009000cf80de00e6
:1013c00002004000838048000400370018009000ad
:1013d000cf80de0000005100818059004f0478006a
:1013e000000006000400fa00889fbe008a9fbe002d
:1013f0008c1f78000006780092bf9f00a3bf9f005b
:1014000001047800300090000040a10030069800f0
:101410002c0090000000e00006003a004c00900014
:101420004dfc0700e10f4000e08f480057003a00f4
:1014300054003700e18f500005003200e28f500069
:101440000c0032000100e000200032004d003700a7
:101450000c007800c6ff07001fb99700afb99700ce
:10146000020140008381480092bf9f00a3bf9f00fc
:10147000160037000c0078004a0007004c0090006e
:10148000110020006011b80033fc07000005be0009
:101490004c009000880078006011b8002efc070016
:1014a0000004be004c0090008000eb000a01be006a
:1014b00029fc07001fba9700afba97000402440046
:1014c00085824c0094bf9f00a5bf9f000c00780050
:1014d000a7ff07001fba9700afba9700000152009c
:1014e00081815a00030032003c00900000b0a0004f
:1014f000300698003c0290000408a3000f00320060
:10150000620362000d003a00e00f5100e08f5900c5
:101510000a0035009c0290006128b900800f51003c
:10152000818f590005003c0002805200100698008f
:101530001c0e410006007800150037000498a30037
:10154000050032001c0090000000e00002003200a4
:101550000c007800130007008000eb0011069800d3
:10156000ac029000050e78004c0090001fb9970067
:10157000afb99700f8fb0700e00f5000e08f58006c
:1015800002003d000080eb00010037000000eb008e
:101590004f0678004f05be004f04be000080fa00e1
:1015a00000000600881f78000004780030009000da
:1015b0000008a30007003200800078000120b2007c
:1015c00004003a0011049800a8009000010c780073
:1015d000170037000018a300190032000098a3007c
:1015e00017003200a80090000100e0001400320053
:1015f000180190000200e000110032004800900045
:10160000e2fb070098009000810f500003003200b9
:10161000380090000003b300300498000000eb0095
:101620001004980028009000000c7800380090000a
:101630000058a300020032000080eb0001003700d8
:101640000000eb004f047800000006000200fa00e2
:10165000889fbe00a0ff9f00010478003100900029
:10166000e200600004003a000003b3003004980078
:101670001104980018003700d80490000900e00019
:101680001a003a006c00600004003a006b0007008a
:1016900020049800e10f400011003a00290498004e
:1016a00059049800380090000020a00030049800f1
:1016b000190498004800900012002000e6805700ae
:1016c000b2fb0700e10f50001f003200380090000d
:1016d0000003b300300498000080eb001c003700ca
:1016e00000202000500498000a00370018019000e4
:1016f000a800900048009000a4fb0700980090000c
:10170000810f500003003200380090000003b30046
:101710003004980010002000100498002800900069
:10172000aff897000148780028009000000ce8000e
:10173000b80090000080eb000158a30004003a00bc
:101740000190a00031049800aff897000180fb00e1
:101750004f04be000080fa0000000600889fbe0013
:101760008a1f780000047800300090006300600059
:1017700024003200080078008aff07003805900036
:1017800080ef2f00000065003004980028009000d2
:101790000000e00004003200e804650002003a00a6
:1017a000350007002904980048009000aefb0700b0
:1017b000e10f400013003200b80090000102b200b7
:1017c00010003a000ac8a30018003200506d8000d3
:1017d0000000e0001500320000017800810478006c
:1017e000012a200012289000880f500007003200c4
:1017f0004205b0004905b000818f54000b00320053
:10180000f8ff37000080eb00090037000200780085
:101810009efb0700506d8000090040008000eb0037
:101820001128980001007800010037000000eb004b
:101830004f0578004f04be0000000600416d800097
:101840000100e0000300320011007800406d8800c4
:10185000030037000020200095fb0700800078007f
:10186000e18f400002003a00906e2600606d880013
:101870000100780000000600416d8000010878003a
:08188000406d88000000060025
:020000040000fa
:0200000401f009
:04000000ffff0000fe
:020000040000fa
:0200000401f009
:04000400ffff0000fa
:020000040000fa
:0200000401f009
:04000800ffff0000f6
:020000040000fa
:0200000401f009
:04000c0078ff000079
:020000040000fa
:0200000401f009
:040010007fff00006e
:020000040000fa
:0200000401f009
:040014007fff00006a
:020000040000fa
:0200000401f009
:04001800ffff0000e6
:020000040000fa
:0200000401f009
:04001c00dfff000002
:020000040000fa
:100008003c1a00003c1a00003c1a00003c1a000090
:100018003c1a00003c1a00003c1a00003c1a000080
:100028003c1a00003c1a00003c1a00003c1a000070
:100038003c1a00003c1a00003c1a0000081300009b
:100048003c1a00003c1a00003c1a00005a18000034
:10005800521800003c1a00003c1a00003c1a00002c
:100068003c1a00003c1a00003c1a00003c1a000030
:10007800c81200003c1a00003c1a00003c1a00009c
:100088003c1a00003c1a00003c1a00003c1a000010
:100098003c1a0000e81200009813000090130000ba
:1000a8003c1a00003c1a00003c1a00003c1a0000f0
:1000b8003c1a00003c1a00003c1a00003c1a0000e0
:1000c8003c1a00003c1a00003c1a00003c1a0000d0
:1000d8003c1a00003c1a00003c1a00003c1a0000c0
:1000e8003c1a00003c1a00003c1a00003c1a0000b0
:1000f8003c1a00003c1a00003c1a00003c1a0000a0
:100108003c1a00003c1a0000401300003c1a000092
:100118003c1a00003c1a00003c1a00003c1a00007f
:100128003c1a00003c1a00003c1a00003c1a00006f
:100138003c1a00003c1a00003c1a00003c1a00005f
:100148003c1a00003c1a00003c1a0000681300002a
:100158003c1a00003c1a00003c1a00003c1a00003f
:100168003c1a00003c1a00003c1a00003c1a00002f
:100178003c1a00003c1a00003c1a00003c1a00001f
:100188003c1a00003c1a00003c1a00003c1a00000f
:100198003c1a00003c1a00003c1a00003c1a0000ff
:1001a8003c1a00003c1a00003c1a00003c1a0000ef
:1001b8003c1a00003c1a00003c1a00003c1a0000df
:1001c8003c1a00003c1a00003c1a00003c1a0000cf
:1001d8003c1a00003c1a00003c1a00003c1a0000bf
:1001e8003c1a00003c1a00003c1a00003c1a0000af
:0801f8003c1a00003c1a000053
:020000040000fa
:100208003c1a00003c1a00003c1a00003c1a00008e
:100218003c1a00003c1a00003c1a00003c1a00007e
:100228003c1a00003c1a00003c1a00003c1a00006e
:100238003c1a00003c1a00003c1a00000813000099
:100248003c1a00003c1a00003c1a00005a18000032
:10025800521800003c1a00003c1a00003c1a00002a
:100268003c1a00003c1a00003c1a00003c1a00002e
:10027800c81200003c1a00003c1a00003c1a00009a
:100288003c1a00003c1a00003c1a00003c1a00000e
:100298003c1a0000e81200009813000090130000b8
:1002a8003c1a00003c1a00003c1a00003c1a0000ee
:1002b8003c1a00003c1a00003c1a00003c1a0000de
:1002c8003c1a00003c1a00003c1a00003c1a0000ce
:1002d8003c1a00003c1a00003c1a00003c1a0000be
:1002e8003c1a00003c1a00003c1a00003c1a0000ae
:1002f8003c1a00003c1a00003c1a00003c1a00009e
:100308003c1a00003c1a0000401300003c1a000090
:100318003c1a00003c1a00003c1a00003c1a00007d
:100328003c1a00003c1a00003c1a00003c1a00006d
:100338003c1a00003c1a00003c1a00003c1a00005d
:100348003c1a00003c1a00003c1a00006813000028
:100358003c1a00003c1a00003c1a00003c1a00003d
:100368003c1a00003c1a00003c1a00003c1a00002d
:100378003c1a00003c1a00003c1a00003c1a00001d
:100388003c1a00003c1a00003c1a00003c1a00000d
:100398003c1a00003c1a00003c1a00003c1a0000fd
:1003a8003c1a00003c1a00003c1a00003c1a0000ed
:1003b8003c1a00003c1a00003c1a00003c1a0000dd
:1003c8003c1a00003c1a00003c1a00003c1a0000cd
:1003d8003c1a00003c1a00003c1a00003c1a0000bd
:1003e8003c1a00003c1a00003c1a00003c1a0000ad
:0803f8003c1a00003c1a000051
:020000040000fa
:101888005365000072690000616c0000203200009e
:10189800206300006f6d00006d7500006e69000028
:1018a80063610000746900006f6e0000206800002a
:1018b80061730000206300006f6e00006e65000019
:1018c8006374000065640000207300007563000005
:1018d8006365000073730000667500006c6c00009f
:1018e800792100002e0d00000000000029230000cf
:0418f80000000000ec
:020000040000fa
:1018fc000800fa001007980021079800320798009a
:10190c000000eb00000f78000000eb00000f7800e7
:10191c00070037001e007800800078002e00900031
:10192c00808040000040eb00804878001e0fe800eb
:10193c003e0090009e0f1000f6ff35002e00900028
:10194c000080fa00000006001400fa00500798000e
:10195c00610798000f007800100f98000f007800b6
:10196c00700798000000eb00300798000000eb00b7
:10197c00200798000000eb00100798006e00900004
:10198c00000040000000e8000000e8000000d1006a
:10199c00000040008f007800010f980080874700fe
:1019ac008e0890000100e8000000d100000040000b
:1019bc00000f98000e089000400798000000eb0004
:1019cc00000f7800230037003e0090008000780064
:1019dc005e0090000080400090407800f0c2b300a0
:1019ec0080cf5000150034003e009000800078003d
:1019fc005e009000008040009040780090c3b300df
:101a0c0080cf50000d003c00be0190003e009000c5
:101a1c00800078005e00900000804000104078004c
:101a2c008000fb0000fd2f0000814000ce009000e4
:101a3c000380410002b07800030037002e009000b4
:101a4c000000e800200798003e0090000000e8002d
:101a5c00300798003e009000800078005e009000f7
:101a6c0000804000104078000004e000d6ff3a00ef
:101a7c000000eb00100798000b0037001e007800e8
:101a8c006a00b900000178001e009000ce009000a2
:101a9c000000400060807800000f41001e009000a4
:101aac000000e80010079800be0090002e00900087
:101abc00808050001e009000808f5000efff3c0093
:101acc001e007800cf80de001bfb0700fe07900095
:101adc009e0f90000080fa00000006001400fa002f
:101aec0050079800610798000f007800100f9800bd
:101afc000f007800700798000000eb00300798008a
:101b0c000000eb00200798000000eb001007980085
:101b1c006e009000000040000000e8000000e800ab
:101b2c000000d100000040008f007800010f9800e9
:101b3c00808747008e0890000100e8000000d1006b
:101b4c0000004000000f98000e089000400798001d
:101b5c000000eb00000f7800230037003e009000df
:101b6c00800078005e00900000804000904078007b
:101b7c00f0c2b30080cf5000150034003e0090003e
:101b8c00800078005e00900000804000904078005b
:101b9c0090c3b30080cf50000d003c00be019000fc
:101bac003e009000800078005e00900000804000b5
:101bbc00104078008000fb0000fd2f0000814000e9
:101bcc00ce0090000380410002b078000300370083
:101bdc002e0090000000e800200798003e009000c6
:101bec000000e800300798003e009000800078006c
:101bfc005e00900000804000104078000004e0007f
:101c0c00d6ff3a000000eb00100798000b003700dd
:101c1c001e0078006a00b900000178001e009000d8
:101c2c00ce0090000000400060807800000f410062
:101c3c001e0090000000e80010079800be00900005
:101c4c002e009000808050001e009000808f50006d
:101c5c00efff3c001e007800fe0790009e0f9000e6
:101c6c000080fa00000006002000fa00881f7800af
:101c7c00200f9800310f98000f007800700f98001b
:101c8c000f007800400f98000000eb0070079800e0
:101c9c000000eb00600798000000eb005007980074
:101cac006000b80030079800410798006000b80049
:101cbc0010079800210798000000eb00000f780037
:101ccc003e0890004200dd000000e8000000e80043
:101cdc000000d100000040008f007800610f9800d8
:101cec0080874700ee0890000100e8000000d1005a
:101cfc0000004000600f98006e089000100f9800d4
:101d0c003e0890004200dd000000e8000000e80002
:101d1c000000d100000040008f007800510f9800a7
:101d2c0080874700de0890000100e8000000d10029
:101d3c0000004000500f98005e089000000f9800c3
:101d4c000000eb00000f78005a0037005e00900096
:101d5c000000e0000a003a001e00780080007800c5
:101d6c002e0890000080400010407800ed4f50008d
:101d7c0003003a00be089000010f78004c003700b9
:101d8c001e007800800078002e0890000080400033
:101d9c0090407800e0c2b30080cf500017003200b2
:101dac005e0090000000e00014003a001e04780071
:101dbc001e007800800078002e0890000080400003
:101dcc00104078008000fb0000fd2f0000804000d8
:101ddc00cf80de0058fa07000001be008e0890008c
:101dec004240dd00010040000288be007e009000f1
:101dfc000000e800700798002d0037001e007800e6
:101e0c00800078002e089000008040009040780000
:101e1c00e0c2b30080cf500003003a001000200055
:101e2c0050079800220037001e00780080007800d0
:101e3c002e0890000080400010407800ed4f5000bc
:101e4c00190032005e009000e10f500016003a00bd
:101e5c007e0090001e0010000004e9001e007800b7
:101e6c00800078002e089000008040001040780020
:101e7c008000fb0000fd2f0000804000cf80de00c2
:101e8c002dfa07000001be009e0890004240dd00c4
:101e9c00010040000288be006e0090000000e800c7
:101eac0060079800020037003e089000000f780091
:101ebc001e0fe8003e0890009e0f1000a3ff350097
:101ecc000000eb00000f7800120037000200200029
:101edc00031224003e009000ce00900041fa07004f
:101eec0030079800410798001e0078008e0890007b
:101efc004200dd00010040001001be003e009000d9
:101f0c00ce009000befa07003007980041079800f9
:101f1c001e0fe8007e0090009e0f1000ebff3500b6
:101f2c006e009000000fe900120037001e007800d0
:101f3c009e0890004200dd00010040001001be0030
:101f4c001e009000ae009000adfa0700100798003c
:101f5c002107980002002000031224001e009000ac
:101f6c00ae00900053fa0700100798002107980064
:101f7c001e0fe9001e00e000ecff3d001e0190006a
:101f8c00ae0190003e009000ce0090009cfa07003d
:101f9c0030079800410798003e009000ce0090005a
:101fac00ce0f9000fe0f90004f0478000080fa00d6
:101fbc00000006000800fa0020079800310798007e
:101fcc000000eb00100798000000eb00000f7800f9
:101fdc000000eb00000f7800200037001e00780096
:101fec00800078002e0090000080400010407800a7
:101ffc00ed4f50000f0032001e0090006a00b90037
:10200c00100798001e007800800078002e009000c9
:10201c0000804000104078008000fb001e00900003
:10202c008080400000fd2f000080400010079800c9
:10203c00090037001e007800800078002e00900008
:10204c000080400010407800ed4f500002003a0034
:10205c003e009000000f78001e0fe8003e0090003c
:10206c009e0f1000ddff35001e0090000080fa006e
:10207c00000006001000fa00889fbe00d80407007c
:10208c00e4000700a0ff2f0047fb0700f04f2100e2
:10209c00100888000000eb0058fb07007038210086
:1020ac0070079800fe009000d0fa2f0055fb070037
:1020bc000000200001f023007f04070067040700e4
:1020cc0000202c00110020001b04070000202c0015
:1020dc00110020000b020700460207004002070017
:1020ec00da020700d40207006000b80061020700a2
:1020fc006000b800f50207000000eb0060079800d4
:10210c006000b80040079800510798006000b800c4
:10211c0020079800310798000000eb00100798008a
:10212c0073040700b0478800c14788000000eb002b
:10213c00000f7800a0c7280037fb0700e04980009b
:10214c000000e90010407800d0e8b700504980004a
:10215c000000e90010407800d1e8b7006049800029
:10216c000000e00004003200b042800044fb070095
:10217c000000eb0060498800c04580000000e000d2
:10218c009d003200604680000000e0009a003200a2
:10219c00e045800080407800208d200001487800c8
:1021ac00208d2000104078008080fb00208d2000c6
:1021bc00104090000080fb0000805000cf80de00bb
:1021cc005df90700b2478000c347800085f907001e
:1021dc00c28029006394230082f907000004be002a
:1021ec0092478000a34780000000200001f82300e4
:1021fc00b0f907000001be000800be0079f9070025
:10220c00020020001356240076f90700228d2000ce
:10221c002001980031019800208d2000904078001a
:10222c00208d200011409800f045800080407800ff
:10223c00a08d200001487800a08d2000104078006f
:10224c008080fb00a08d2000104090000080fb00df
:10225c0000805000cf80de0037f90700b2478000c5
:10226c00c34780005ff90700c280290063942300f4
:10227c005cf907000004be0092478000a347800071
:10228c000000200001f823008af907000001be00bd
:10229c000800be0053f9070002002000135624006a
:1022ac0050f90700a28d2000200198003101980000
:1022bc00a08d200090407800a08d20001140980047
:1022cc000046800080407800208e20000148780075
:1022dc00208e2000104078008080fb00208e200093
:1022ec00104090000080fb0000805000cf80de008a
:1022fc0011f90700b2478000c347800039f9070085
:10230c00c28029006394230036f907000004be0044
:10231c0092478000a34780000000200001f82300b2
:10232c0064f907000001be000800be002df907008b
:10233c0002002000135624002af90700228e2000e8
:10234c002001980031019800208e200090407800e8
:10235c00208e2000114098001046800080407800ac
:10236c00a08e200001487800a08e2000104078003c
:10237c008080fb00a08e2000104090000080fb00ad
:10238c0000805000cf80de00ebf80700b2478000e1
:10239c00c347800013f90700c2802900639423000f
:1023ac0010f907000004be0092478000a34780008c
:1023bc000000200001f823003ef907000001be00d8
:1023cc000800be0007f90700020020001356240085
:1023dc0004f90700a28e200020019800310198001a
:1023ec00a08e200090407800a08e20001140980014
:1023fc000000eb00604688004e009000de0090006c
:10240c009c0107002e009000be0090002f020700d8
:10241c004aff37000000fa000000eb0010048800af
:10242c008680a9009680a80087a0a90097a0a80084
:10243c000000eb0040168800c842a900c862a80042
:10244c00c802a900c822a800c8e2a800c9a2a80016
:10245c00c8a2a800c9e2a8002c83a8002ca3a8003d
:10246c002c43a8002c63a800113a8000f00b20002c
:10247c00008160006104200070052000237420009e
:10248c00814978008049780082497800416a2000af
:10249c009140780000ceb30000c060003040b30023
:1024ac00a4e6b700216c20009140780000ceb30068
:1024bc0000c060003040b300c2e6b700616a200083
:1024cc009140780000ceb30000c060000004a00072
:1024dc00a6e6b700016c20009140780000ceb30056
:1024ec0000c060005040b300c0e6b700c1692000d6
:1024fc009140780000ceb30000c060007040b30083
:10250c009ce6b700016a20009140780000ceb30031
:10251c0000c06000d040b300a0e6b70011682000f6
:10252c009140780000ceb30000c060005040b30072
:10253c0081e6b700216820009140780000ceb300fe
:10254c0000c06000f040b30082e6b700113a800092
:10255c000004200000817000610420007005200040
:10256c0023742000814978008049780082497800e2
:10257c0000a8210061002000b7f707000080fa00d6
:10258c0000000600809fbe000000fa00014680009b
:10259c0000a62e00808f500003003a000000eb00d4
:1025ac000046880003003700004680000000e80069
:1025bc00004688008680a9000080fa004f00be000b
:1025cc0000400600809fbe000000fa00114680000b
:1025dc0000a62e00808f500003003a000000eb0094
:1025ec001046880003003700104680000000e80009
:1025fc001046880087a0a9000080fa004f00be009a
:10260c0000400600809fbe003400f800000020004f
:10261c00a00188000000fa007146800040072000ed
:10262c00808f500008003a00604680000000e000f7
:10263c0005003a0010002000604688000000eb0006
:10264c007046880006003700604680000000e000fd
:10265c0003003a00704680000000e80070468800d5
:10266c0084e0a9000080fa003400f9004f00be009d
:10267c0000400600809fbe003400f80000002000df
:10268c00a00188000000fa00e145800000a62e00a1
:10269c00808f500003003a000000eb00e0458800fa
:1026ac0003003700e04580000000e800e0458800aa
:1026bc008b40a9000080fa003400f9004f00be00e6
:1026cc0000400600809fbe003400f800000020008f
:1026dc00a00188000000fa00f145800000a62e0041
:1026ec00808f500003003a000000eb00f04588009a
:1026fc0003003700f04580000000e800f04588003a
:10270c008d60a9000080fa003400f9004f00be0073
:10271c00004006000000fa0087e0a9000080fa00e3
:10272c0000400600809fbe00829fbe000400fa009d
:10273c0032c2bf00644060000004e00001003200bf
:10274c0033c2bf0032c2bf00684060000004e0002a
:10275c000100320033c2bf0032c2bf0062406000d1
:10276c000004e0000100320033c2bf0032c2bf00df
:10277c00614060000004e0000100320033c2bf0081
:10278c00b111800010042000808f500005003a0029
:10279c000000eb00604988000000eb0070498800e5
:1027ac0008003700b1118000a0052000808f500078
:1027bc0004003a0010002000604988000000eb0083
:1027cc0070498800604980000000e0003b003a003e
:1027dc00704980006101b800028fbe00c00020006b
:1027ec00010020001e01be00800f5100818f590096
:1027fc0032003e001e00be00006001002f003700ba
:10280c000b0037000d0037000f00370011003700a8
:10281c001300370015003700170037001900370078
:10282c001b0037001d0037001f0037002100370048
:10283c00b01180008042880020003700b011800069
:10284c00904288001d003700b0118000a042880023
:10285c001a003700b0118000b04288001700370012
:10286c00b0118000c042880014003700b011800005
:10287c00d042880011003700b0118000e04288007f
:10288c000e003700b0118000f04288000b003700ba
:10289c00b01180000043880008003700b0118000a0
:1028ac001043880005003700b011800020438800d9
:1028bc0002003700b011800030438800704980005e
:1028cc000000e8007049880051498000b011800078
:1028dc00804878000100e800504988005049800089
:1028ec000000e900104078000000fb00a0118800f7
:1028fc0087c0a9000080fa004f01be004f00be0047
:10290c00004006000a00fa003007980041079800c2
:10291c00aaf9070087c0a90087c0a900b0f32f004f
:10292c00acf907003e019000ce01900000102e0083
:10293c0001002000800f5100818f59000e003e00d5
:10294c003e009000ce0090004409dd00cc01de007a
:10295c00830171004401dd0000a025002126200028
:10296c0016f807000000e9002007980000402c0032
:10297c00100798000d0037003e009000ce0090002c
:10298c004209dd00ce01de00830171004201dd0051
:10299c0000a025002126200008f807000000e9000f
:1029ac002007980080402c0010079800d07521005b
:1029bc00000f78002e0190009e0078001e00900001
:1029cc00adf9070000a8210061002000a2f6070065
:1029dc0040c4280002fa07000080fa00000006003c
:1029ec000000fa0090498000c00e88000080fa00b8
:1029fc00000006000000fa00030007000f000700ab
:102a0c000080fa00000006000000fa00c8a1a8002f
:102a1c00c0c1bf00c040b300c0e1b700210e8000b0
:102a2c0000002800008060009186210001007000e9
:102a3c00200e88000080fa00000006000000fa005a
:102a4c00c1e1a8000080fa00000006000000fa00b6
:102a5c00c1e1a9000080fa00000006000200fa00a3
:102a6c00000f78001e007800c00e88000080fa006d
:102a7c00000006001200fa0070079800010f980081
:102a8c0002002000832c24007e0090008e08900011
:102a9c0038f807000000e00001003c00050037009a
:102aac0000002000812c240070079800010f980072
:102abc000c00370002002000832c2c007e009000bc
:102acc008e0890002df807000000e0000100350092
:102adc000400370000002000812c2c0070079800a7
:102aec00010f98006011b8007e0090008e089000d5
:102afc0020f807000000e00001003d00080037004e
:102b0c007e0090008e08900002002000832c240090
:102b1c0068f7070020079800310798000e0037006f
:102b2c006011b8007e0090008e08900013f807002a
:102b3c000000e00001003500070037007e00900027
:102b4c008e08900002002000832c240059f7070007
:102b5c0020079800310798006011b8002e009000f3
:102b6c00be00900003f807000000e00001003d00eb
:102b7c000a0037002e009000be00900002002000da
:102b8c00030a240017f70700020020000317240093
:102b9c009bf70700008fbe00100037006011b800d3
:102bac002e009000be009000f4f707000000e0003b
:102bbc0001003500090037002e009000be00900087
:102bcc0002002000030a240006f707000200200080
:102bdc00031724008af70700008fbe001e00be00fa
:102bec0002002000832c240032f70700020025008d
:102bfc0033642400fbf607006011b80080f707006f
:102c0c0040079800510798004e009000de0090009d
:102c1c00dcf70700600798006e0090008fff07003c
:102c2c000080fa00000006000400fa00008fbe00cd
:102c3c000080fa00000006000000fa00b049800095
:102c4c00b00e88000080fa00000006000000fa00b8
:102c5c00030007000f0007000080fa0000000600c8
:102c6c000000fa00c881a800c0c1bf00c040b3007a
:102c7c00c0e1b700210e8000000028000080600039
:102c8c009186210001007000200e88000080fa005f
:102c9c00000006000000fa00c1e1a8000080fa0064
:102cac00000006000000fa00c1e1a9000080fa0053
:102cbc00000006000200fa00000f78001e007800e9
:102ccc00b00e88000080fa00000006001200fa0026
:102cdc0070079800010f980002002000432b24007d
:102cec007e0090008e089000a2f707000000e00024
:102cfc0001003c000500370000002000412b24009f
:102d0c0070079800010f98000c003700020020009b
:102d1c00432b2c007e0090008e08900097f7070044
:102d2c000000e00001003500040037000000200026
:102d3c00412b2c0070079800010f98006011b8000f
:102d4c007e0090008e0890008af707000000e000db
:102d5c0001003d00080037007e0090008e089000b6
:102d6c0002002000432b2400d2f607002007980015
:102d7c00310798000e0037006011b8007e009000fb
:102d8c008e0890007df707000000e0000100350080
:102d9c00070037007e0090008e0890000200200093
:102dac00432b2400c3f60700200798003107980036
:102dbc006011b8002e009000be0090006df7070067
:102dcc000000e00001003d000a0037002e009000da
:102ddc00be009000020020000308240081f60700ca
:102dec00020020000316240005f70700008fbe0028
:102dfc00100037006011b8002e009000be0090004b
:102e0c005ef707000000e000010035000900370004
:102e1c002e009000be009000020020000308240049
:102e2c0070f607000200200003162400f4f60700d9
:102e3c00008fbe001e00be0002002000832c240068
:102e4c009cf60700020025003364240065f6070099
:102e5c006011b800eaf60700400798005107980087
:102e6c004e009000de00900046f7070060079800c7
:102e7c006e0090008fff07000080fa000000060033
:0c2e8c000000fa000080fa0000000600c0
:020000040000fa
:102e9800b80800003e000000020000000000010029
:102ea80000000000000000000000000060ea600070
:102eb800ea60ea0060ea010000000000000000008b
:102ec80000000000000000000000000000000000fa
:102ed80000000000000000000000000000000000ea
:102ee800000000000000000000b762007f3f000003
:102ef800f60800001c000000000000003c0900006b
:102f080002000000020000006808000068080000d5
:102f180050000000000000002a0900000600000020
:102f28000200000000080000000000000008000087
:102f380068000000000000003009000004000000e4
:102f48000200000000000000000000003e09000030
:102f58000200000000000000340900000400000026
:102f6800020000000000000000000000400900000e
:102f78000200000000000000120900001800000014
:102f88000200000000000000000000000000000037
:102f980000004100000000000000000000000000e8
:102fa80000000000380900000400000000000000d4
:102fb800440d00006200000002000000460d4200bf
:102fc8000b000000420b0900000000000002420054
:102fd8000900000042090a00030100000002000085
:102fe80000000000000006000202000000000000cf
:102ff80000000000000000000000000000000000c9
:1030080000000000000000000000000000000000b8
:1030180000000000000000000000000000000000a8
:103028000000000000000000000000000000000098
:103038000000000000000000000000000000000088
:10304800420900000204000000000000a60d000074
:103058000200000000000000a80d000002000000af
:1030680000000000aa0d000002000000000000009f
:10307800ac0d00000200000000000000ae0d0000d2
:10308800020000000200000001000000b00d000076
:0c3098000200000000000000000000002a
:020000040000fa
:1030a4000000fa008580a9000080fa0000400600b4
:1030b400809fbe000000fa0022c2bf00644060008e
:1030c4000004e0000100320023c2bf0022c2bf009e
:1030d400684060000004e0000100320023c2bf0029
:1030e40022c2bf00624060000004e0000100320020
:1030f40023c2bf0022c2bf00614060000004e000a0
:103104000100320023c2bf00e14980003011800079
:10311400804878000100e800e0498800e049800028
:103124000000e900104078000000fb002011880036
:103134008560a9000080fa004f00be000040060030
:103144000a00fa00300798004107980068f7070062
:103154008560a9008580a900b0f32f006af70700f5
:103164003e019000ce01900000102e0001002000ce
:10317400800f5100818f59000e003e003e009000e8
:10318400ce0090004409dd00cc01de008301710013
:103194004401dd0000a025002126200009f60700d7
:1031a4000000e9002007980000402c001007980058
:1031b4000d0037003e009000ce0090004209dd0073
:1031c400ce01de00830171004201dd0000a0250074
:1031d40021262000fbf507000000e90020079800e5
:1031e40080402c0010079800d0752100000f780053
:1031f4002e0190009e0078001e0090006df70700dd
:1032040000a821006100200095f407000080fa0066
:10321400000006000400fa00100798001e00900049
:10322400000f78000900370023c2bf00624060002d
:103234000004e00005003a001e0078001040780009
:103244000000fb00201188001e0fe8001e0078001b
:10325400104078000004e000f3ff3a000080fa0018
:10326400000006000000fa0090f72f0088f707001e
:103274000000eb00200f880080162000300f88002b
:103284008000eb0080f52d0095f70700e161a800b0
:1032940090f72f00a1f707000000eb00a00f8800b3
:1032a40080162000b00f88008000eb0080f52d0010
:1032b400aff70700f161a8000080fa0000000600e3
:1032c4000400fa00008fbe001e00be009048880073
:1032d400a148880090488000a148800002fd200099
:1032e400930c240041f50700b0488800c1488800c9
:1032f4000080fa00000006000000fa00b0488000d8
:10330400c1488000d2488000e34880006bf5070084
:10331400c0498800d1498800c0498000d149800053
:103324000080fa00000006000c00fa00881f7800f4
:10333400204980000000e80020498800200f800018
:103344000049880001498000f04880000080500056
:103354001049880010498000380f80006140b9008e
:10336400f7f4070040079800510798000800e000b0
:1033740007003d0002002000037824004e00900066
:10338400de009000a0f50700400798005107980060
:103394004e019000de01900000fd2000910c2400fd
:1033a40046f50700200798003107980090488000f0
:1033b400a14880002e019000be0190000bf507008b
:1033c400008fbe001e00be00d2cc2c00c3e423003c
:1033d4003af5070030498800414988004f047800d5
:1033e4000080fa00000006000000fa0090022000ad
:1033f400303a880044c7bf00f043b20044e7b70046
:10340400417420009140780000ceb30000c06000f9
:1034140044e7b7001200200081072000a009200023
:10342400337420008149780080497800824978000b
:103434001200200061042000700520002374200085
:1034440081497800804978008249780043c7bf00e9
:103454000047b200f04f5000fcff3a0042c7bf00e3
:103464000042b2000004e000fcff32000080fa00d9
:04347400000006004e
:020000040000fa
:043478000000fe0052
:00000001FF
