:020000040000fa
:080000000002040000000000f2
:020000040000fa
:100400004f9c2000007f22000001880000000000b7
:100410000c00070000692100010020001100070006
:10042000000020000000e000020032000000020096
:1004300000000000dc130200000000000040da00b1
:100440000000fe004440a900000020000000e00081
:100450000300320000002000a00188004440a800f2
:100460000000060091018800800078000000eb0089
:1004700015003700e280400032a0b4009101ba00bc
:10048000e280400032a0b4009102ba00e280400055
:1004900032a0b4000002eb00472bde00f507b200eb
:1004a000602ce10004003a000059eb008301e900f0
:1004b000fdff3e00040037006128e100010032002a
:1004c0000082eb00040007001101ba000200e00006
:1004d000e8ff3a00000006003159ba008301e90044
:1004e0000c0032002159ba008301e90008003200f3
:1004f0000400e00003003a00e280400032a0b400b3
:10050000f5ff370011d9ba008301e900faff3a007c
:100510008100e800e180400032a0b4000000060045
:100520006022b800060220000000d0008180d200c6
:100530000482d2008582d2000000a0000202520094
:1005400083825a00030031000202420083824a0083
:100550000000a1000603e900f3ff3a0000000600d6
:10056000889fbe008a9fbe00010578000100e00060
:100570000400350008003c000000e00020003200cc
:100580000500370060001000e080180002003b000a
:1005900001f02c001a0037000004be006011b80002
:1005a0006b0920000982cf00020039000882cf00c9
:1005b0000441b000694252000e00320008003b00c6
:1005c00082817100610164008904d1000884d30034
:1005d0008b05e8000442e800f9ff3a000500370007
:1005e0000804440089844c008b05e9000442e900ba
:1005f000fbff3a00f80007000af0a70001f0a00096
:100600004f05be004f04be000000060003f0a2002c
:10061000889fbe008a9fbe008c1f780014010700cf
:100620001b0133006450e1004f0032006420e10000
:100630005200320003826c0007003b000905d00025
:100640000306d000820f54000c065d000200390042
:100650000200320089017800030678008582550087
:1006600004003d000003fd008103fd008502ea0057
:100670008b854200840f720002003b006000100076
:10068000e08018006011b8000005eb007a28e10056
:100690000a00390006007800c75ddd00f707b200e8
:1006a000878075002d003700828171000a01780073
:1006b000610560008180d1000080d3008502e900df
:1006c000f9ff3b00060440008784480002003b001d
:1006d00060041400e0841c000988a30007003200b5
:1006e0008a81710082817100610164008904d100f6
:1006f0000884d3008b05e800170037000978a300b1
:1007000013003a000b00e000130034008b05e900f1
:100710000804440089844c000a4474000978a3004a
:100720000d003a000b00e000070034008b05e900e3
:100730000804440089844c0001003a000b002000aa
:100740000978a300f7ff32000001eb000200370038
:10075000828171000a0178009f0007000cf0a70059
:1007600001f0a000d30037006420e10002003a004d
:10077000838f6c00d30033000801be000200be006e
:10078000cc003700889fbe008a9fbe008c1f780077
:10079000b7000700be00330003866c006450e10020
:1007a0002e0032006420e100330032006150e1008d
:1007b0002f0032006120e1003100320085855500b4
:1007c000eb07b000090020000804200005003700f6
:1007d0000804440089844c000a00310006034300e9
:1007e00087834b000001530081815b00f8ff3300d9
:1007f0000203be000800a0000804440089844c00e5
:10080000f6ff3900c639dd008301730001003200b4
:10081000130020008904d1000884d3000998a300a4
:10082000050032000800a7000300a0008904d100e1
:100830000884d3008b05e8008904d1000884d30024
:100840000001eb000281d2006300070001f0a1006b
:100850000cf0a70001f0a000960037006420e10032
:10086000980032000801be000200be00f7ff37000a
:100870006120e100930032006000b800f3ff370010
:100880000000200001f82700f0ff3700889fbe001d
:100890008a9fbe008c1f7800750007007c00330023
:1008a00003866c006450e100240032006420e10003
:1008b000270032006150e100220032006120e10097
:1008c000210032008b854200eb07b1000134b800f3
:1008d000003ab8000804420089844a00013ab8008e
:1008e0000030b8008880400009014a00040033004d
:1008f0000000400081804800020149008b05e900aa
:10090000c909dd00830170000100320013002000de
:10091000c814de004814dd004709de001200b200f2
:10092000c808de00088470002b00070001f0a10059
:100930000cf0a70001f0a0005e0037006120e1008c
:10094000600032000801be000200be00f7ff370061
:100950006150e100fcff3a005a0037000001be0080
:100960005b0007000470a70003f0a10003f8a300d8
:1009700013003a006509b10010003200090035008b
:100980006928e10002003500010028000000050090
:1009900000004000818048008502e900fcff3a0029
:1009a00000000600f88f4200050035008100d100ec
:1009b0000080d3008502e800fcff3a00000006003a
:1009c0008000eb00000005001400200055003700f7
:1009d000f4ff2f0053003700810020006180550094
:1009e0000b003d000b00200061fe2f000100e10024
:1009f0001d00340082817100610164008904d1000e
:100a00000884d3000000e800faff3a0071002000db
:100a10006100640003007000020060000900320001
:100a200061044400e0844c000988a5000500320000
:100a30008b05e8006808e10002003a008904d10053
:100a40000884d300f20f20000258e10005003d00a9
:100a5000c75ddd00f907b2008980750008007800e5
:100a6000000006000bf827008b007800000005004e
:100a70000004be00160007000003be000405be000f
:100a80000200be0012000700844f7500000006003f
:100a90000200be006450e100050036006420e10061
:100aa000020036000968a30001003a000800be00f9
:100ab0000160a0004f0678004f05be004f04be0045
:100ac00000000600f0ff2f00f1ff2700f9ff3700bc
:100ad000c70ade00f107b200f50fb20008003200cd
:100ae000e1cf4200020032000170a00024000500a6
:100af000810f700001003200040805004400050069
:100b0000810f700002003a00140005008502e90020
:100b10000000400081c04800fcff3b000170a000c5
:100b200024000500889fbe008a9fbe00841f7800b5
:100b3000cfff07004f00780011003300f0ff2f00b7
:100b4000838f6c0006003b00040565000a00a700c7
:100b50000800370009f0a600100020000800370048
:100b6000820f5400838f5c000300390010002000c6
:100b700001003e000000200009f0a7000000ea008c
:100b80004f05be004f04be000000e000000006005c
:100b900021e2a9009560a9009580a9008560a900bf
:100ba0008580a900000006008560a9008580a90055
:100bb000e7416000c419dd00910a200091407800ef
:100bc000f2c8b30082c0600083c070008000fd00e6
:100bd000a9e0b7008000fd00800178000307b200a3
:100be000c419de00a10a20009140780082cfb30032
:100bf00082c0600083c070008000fd00aae0b700e2
:100c00008000fd00680160004311de004311dd003b
:100c100051092000914078000134a10082c0700089
:100c20008000fd0095e0b7008000fd000008b200e4
:100c30004700de004400dd005109200091407800ab
:100c40000144a10080c070000100780095e0b70069
:100c50000000060042118800001188001111880070
:100c60000000060031e2a90097c0a90097e0a900a2
:100c700087c0a90087e0a9000000060087c0a9007e
:100c800087e0a900e7416000310b20009140780027
:100c900082cfb30082c0600083c070008000fd007e
:100ca000b3e0b7008000fd0001c7b30081416000e0
:100cb000310b200091407800f2c8b30082c0600080
:100cc00083c070008000fd00b3e0b7008000fd002d
:100cd000680160004311de004611dd00710920004b
:100ce000914078000164a10082c070008000fd0086
:100cf00097e0b7008000fd000008b2004700de006a
:100d00004700dd0071092000914078000174a100c6
:100d100080c070000100780097e0b7000000060076
:100d2000c21188008011880091118800000006001f
:100d30008b40a900e7416000110c20009140780031
:100d400082cfb30082c0600083c070008000fd00cd
:100d5000c1e0b7008000fd00680060004300de00d5
:100d60004200dd00b1092000914078000124a1007b
:100d700080c07000010078009be0b7000000060012
:100d8000e1e1a900f2ff220002016000020f8800e9
:100d90004b00de00614060004300dd00121e2000b9
:100da000124178000234a100004171000200780075
:100db000e1e1b700110f8800000006008d60a90076
:100dc000e7416000c419dd00910c200091407800db
:100dd000f2c8b30082c0600083c070008000fd00d4
:100de000c9e0b7008000fd00680060004300de003d
:100df0004300dd00d1092000914078000134a100ba
:100e000080c07000010078009de0b700000006007f
:100e1000f1e1a900f2ff220002016000820f8800c8
:100e20004b00de00614060004300dd00121f200027
:100e3000124178000234a1000041710002007800e4
:100e4000f1e1b700910f88000000060084e0a900de
:100e5000e7416000c419dd00710a2000914078006c
:100e6000f2c8b30082c0600083c070008000fd0043
:100e7000a7e0b7008000fd00680060004300de00ce
:100e80004700dd0041092000914078000174a10075
:100e900080c070000100780094e0b70000000600f8
:100ea00030088800000006000621ef006108880075
:0c0eb000800888001061a9000000060006
:020000040000fa
:0200000401f009
:04000000ffff0000fe
:020000040000fa
:0200000401f009
:04000400ffff0000fa
:020000040000fa
:0200000401f009
:04000800ffff0000f6
:020000040000fa
:0200000401f009
:04000c0078ff000079
:020000040000fa
:0200000401f009
:040010007fff00006e
:020000040000fa
:0200000401f009
:040014007fff00006a
:020000040000fa
:0200000401f009
:04001800ffff0000e6
:020000040000fa
:0200000401f009
:04001c00dfff000002
:020000040000fa
:10000800e4170000e4170000e4170000e4170000fc
:10001800e4170000e4170000e4170000e4170000ec
:10002800e4170000e4170000e4170000e4170000dc
:10003800e4170000e4170000e41700004817000068
:10004800e4170000e4170000e41700009a15000008
:1000580092150000e4170000e4170000e417000000
:10006800e4170000e4170000e4170000e41700009c
:10007800d40a0000e4170000e4170000e4170000a9
:10008800e4170000e4170000e4170000e41700007c
:10009800e4170000f40a00002c12000024120000eb
:1000a800e4170000e4170000e4170000e41700005c
:1000b800e4170000e4170000e4170000e41700004c
:1000c800e4170000e4170000e4170000e41700003c
:1000d800e4170000e4170000e4170000e41700002c
:1000e800e4170000e4170000e4170000e41700001c
:1000f800e4170000e4170000e4170000e41700000c
:10010800e4170000e4170000140b0000e4170000d7
:10011800e4170000e4170000e4170000e4170000eb
:10012800e4170000e4170000e4170000e4170000db
:10013800e4170000e4170000e4170000e4170000cb
:10014800e4170000e4170000e41700003c0b00006f
:10015800e4170000e4170000e4170000e4170000ab
:10016800e4170000e4170000e4170000e41700009b
:10017800e4170000e4170000e4170000e41700008b
:10018800e4170000e4170000e4170000e41700007b
:10019800e4170000e4170000e4170000e41700006b
:1001a800e4170000e4170000e4170000e41700005b
:1001b800e4170000e4170000e4170000e41700004b
:1001c800e4170000e4170000e4170000e41700003b
:1001d800e4170000e4170000e4170000e41700002b
:1001e800e4170000e4170000e4170000e41700001b
:0801f800e4170000e417000009
:020000040000fa
:10020800e4170000e4170000e4170000e4170000fa
:10021800e4170000e4170000e4170000e4170000ea
:10022800e4170000e4170000e4170000e4170000da
:10023800e4170000e4170000e41700004817000066
:10024800e4170000e4170000e41700009a15000006
:1002580092150000e4170000e4170000e4170000fe
:10026800e4170000e4170000e4170000e41700009a
:10027800d40a0000e4170000e4170000e4170000a7
:10028800e4170000e4170000e4170000e41700007a
:10029800e4170000f40a00002c12000024120000e9
:1002a800e4170000e4170000e4170000e41700005a
:1002b800e4170000e4170000e4170000e41700004a
:1002c800e4170000e4170000e4170000e41700003a
:1002d800e4170000e4170000e4170000e41700002a
:1002e800e4170000e4170000e4170000e41700001a
:1002f800e4170000e4170000e4170000e41700000a
:10030800e4170000e4170000140b0000e4170000d5
:10031800e4170000e4170000e4170000e4170000e9
:10032800e4170000e4170000e4170000e4170000d9
:10033800e4170000e4170000e4170000e4170000c9
:10034800e4170000e4170000e41700003c0b00006d
:10035800e4170000e4170000e4170000e4170000a9
:10036800e4170000e4170000e4170000e417000099
:10037800e4170000e4170000e4170000e417000089
:10038800e4170000e4170000e4170000e417000079
:10039800e4170000e4170000e4170000e417000069
:1003a800e4170000e4170000e4170000e417000059
:1003b800e4170000e4170000e4170000e417000049
:1003c800e4170000e4170000e4170000e417000039
:1003d800e4170000e4170000e4170000e417000029
:1003e800e4170000e4170000e4170000e417000019
:0803f800e4170000e417000007
:020000040000fa
:100ebc000000fa0090f72f009aff07000000eb00eb
:100ecc00200f880080162000300f88008000eb0077
:100edc0080f52d00a7ff0700e0e1a900e161a80063
:100eec0090f72f00b2ff07000000eb00a00f880066
:100efc0080162000b00f88008000eb0080f52d00dc
:100f0c00c0ff0700f0e1a900f161a8000080fa0021
:100f1c00000006000400fa00008fbe001e00be0098
:100f2c0020458800314588002045800031458000ef
:100f3c0002fd2000930c240051fe07004045880060
:100f4c00514588000080fa00000006000000fa00fd
:100f5c00404580005145800062458000734580000b
:100f6c0005fe0700a0498800b1498800a04980000f
:100f7c00b14980000080fa00000006001200fa005f
:100f8c00889fbe00000f7800f0ff0700c049880062
:100f9c00d1498800100020009e0f100037003a0045
:100fac008045800080407800408c2000014878000b
:100fbc00408c200090407800408c20001040900025
:100fcc0080c05000408c200021409800408c2000b4
:100fdc00204490000800fb00cf80de005dfd070080
:100fec0070079800010f98000804e00007003d000e
:100ffc0002002000033824007e0090008e08900030
:10100c0080fd070070079800010f9800c24980000e
:10101c00d34980007e0090008e08900018fe0700d7
:10102c00c28029006394230015fe07000004be0053
:10103c0002468000134680000000200001f82300c7
:10104c00cdfd07000001be000800be000cfe07002d
:10105c00020020001356240009fe0700428c2000d9
:10106c002001980031019800408c200090407800bd
:10107c00408c200011409800ad003700200020006b
:10108c009e0f100037003a00904580008040780099
:10109c00c08c200001487800c08c20009040780063
:1010ac00c08c20001040900080c05000c08c2000ec
:1010bc0021409800c08c2000204490000800fb00c8
:1010cc00cf80de0023fd07005007980061079800d1
:1010dc000804e00007003d00020020000338240053
:1010ec005e009000ee00900046fd0700500798004f
:1010fc0061079800c2498000d34980005e009000cf
:10110c00ee009000defd0700c280290063942300ee
:10111c00dbfd07000004be00024680001346800081
:10112c000000200001f8230093fd07000001be0021
:10113c000800be00d2fd0700020020001356240058
:10114c00cffd0700c28c20002001980031019800cf
:10115c00c08c200090407800c08c2000114098007a
:10116c0073003700300020009e0f100037003a004b
:10117c00e045800080407800408d200001487800d8
:10118c00408d200090407800408d20001040900051
:10119c0080c05000408d200021409800408d2000e0
:1011ac00204490000800fb00cf80de00e9fc070023
:1011bc0030079800410798000804e00007003d0044
:1011cc0002002000033824003e009000ce00900066
:1011dc000cfd07003007980041079800c2498000b9
:1011ec00d34980003e009000ce009000a4fd070083
:1011fc00c280290063942300a1fd07000004be00f7
:10120c0002468000134680000000200001f82300f5
:10121c0059fd07000001be000800be0098fd070044
:10122c00020020001356240095fd0700428d20007b
:10123c002001980031019800408d200090407800ea
:10124c00408d2000114098003900370040002000ec
:10125c009e0f100036003a00f04580008040780068
:10126c00c08d200001487800c08d2000904078008f
:10127c00c08d20001040900080c05000c08d200018
:10128c0021409800c08d2000204490000800fb00f5
:10129c00cf80de00affc07001007980021079800f4
:1012ac000804e00007003d00020020000338240081
:1012bc001e009000ae009000d2fc070010079800b2
:1012cc0021079800c2498000d34980001e0090007d
:1012dc00ae0090006afd0700c280290063942300d1
:1012ec0067fd07000004be00024680001346800024
:1012fc000000200001f823001ffd07000001be00c4
:10130c000800be005efd07000200200013562400fa
:10131c005bfd0700c28d2000200198003101980070
:10132c00c08d200090407800c08d200011409800a6
:10133c004f04be000080fa00000006000400fa0012
:10134c00100798000000eb00000f78001e009000c2
:10135c00e10f500005003a00408c20002040900026
:10136c000080fb00000f7800170037001e00900073
:10137c00e20f500005003a00c08c20002040900085
:10138c000080fb00000f78000f0037001e0090005b
:10139c00e30f500005003a00408d200020409000e3
:1013ac000080fb00000f7800070037001e00900043
:1013bc00e40f500004003a00c08d20002040900043
:1013cc000080fb00000f78001e0078000080fa00ff
:1013dc00000006000400fa00100798000000eb0063
:1013ec00000f78001e009000e10f500005003a003d
:1013fc00408c2000104078000080fb00000f78002b
:10140c00170037001e009000e20f500005003a0054
:10141c00c08c2000104078000080fb00000f78008a
:10142c000f0037001e009000e30f500005003a003b
:10143c00408d2000104078000080fb00000f7800e9
:10144c00070037001e009000e40f500004003a0023
:10145c00c08d2000104078000080fb00000f780049
:10146c001e0078000080fa00000006000400fa005c
:10147c00100798000000eb00000f78001e00900091
:10148c00e10f500005003a00408c20001040900005
:10149c000080fb00000f7800170037001e00900042
:1014ac00e20f500005003a00c08c20001040900064
:1014bc000080fb00000f78000f0037001e0090002a
:1014cc00e30f500005003a00408d200010409000c2
:1014dc000080fb00000f7800070037001e00900012
:1014ec00e40f500004003a00c08d20001040900022
:1014fc000080fb00000f78001e0078000080fa00ce
:10150c00000006000600fa00200798006000b800f2
:10151c00008fbe002e009000e10f500005003a0035
:10152c00408c200020019000b0019000028fbe0082
:10153c00170037002e009000e20f500005003a0013
:10154c00c08c200020019000b0019000028fbe00e2
:10155c000f0037002e009000e30f500005003a00fa
:10156c00408d200020019000b0019000028fbe0041
:10157c00070037002e009000e40f500004003a00e2
:10158c00c08d200020019000b0019000028fbe00a1
:10159c001e00be000080fa0000000600809fbe0006
:1015ac000000fa0081458000a0458000808f50002b
:1015bc0003003a000000eb00804588000300370070
:1015cc00804580000000e800804588008680a900e6
:1015dc000080fa004f00be0000400600809fbe0055
:1015ec000000fa0091458000b0458000808f5000cb
:1015fc0003003a000000eb00904588000300370020
:10160c00904580000000e8009045880087a0a90064
:10161c000080fa004f00be0000400600809fbe0014
:10162c003400f80000002000a00188000000fa003f
:10163c00e1458000c0458000808f500003003a00d7
:10164c000000eb00e045880003003700e045800017
:10165c000000e800e04588008b40a9000080fa00fb
:10166c003400f9004f00be0000400600809fbe0011
:10167c003400f80000002000a00188000000fa00ef
:10168c00f1458000d0458000808f500003003a0067
:10169c000000eb00f045880003003700f0458000a7
:1016ac000000e800f04588008d60a9000080fa0079
:1016bc003400f9004f00be00004006000000fa00a4
:1016cc00030007000f0007000080fa00000006006e
:1016dc000000fa00c881a800c0c1bf00c040b30020
:1016ec00c0e1b700210e80000000280000806000df
:1016fc009186210001007000200e88000080fa0005
:10170c00000006000000fa00c1e1a8000080fa0009
:10171c00000006000000fa00c1e1a9000080fa00f8
:10172c00000006000200fa00000f78001e0078008e
:10173c00b00e88000080fa00000006001000fa00cd
:10174c00700798007e009000cf80de0081fb0700c0
:10175c0030079800410798003e009000ce009000a2
:10176c00020020000337240003fc070050079800f8
:10177c00610798005e009000ee00900002002000cf
:10178c00f34224003efc070002002000f34a240030
:10179c009cfb070010079800210798001e00900082
:1017ac00ae0090006afc0700000f78000080fa0081
:1017bc00000006001400fa0070079800fe0090006c
:1017cc0080072000808f5000310032007e00900096
:1017dc00cf80de005ffb0700000f9800110f980010
:1017ec007e0090000000e00007003d000200200099
:1017fc00037824000e0890009e08900081fb0700df
:10180c00000f9800110f98000e0890009e08900091
:10181c0050079800610798006000b80030079800e6
:10182c00410798006000b800100798002107980045
:10183c005e009000ee0090000200200003372400b0
:10184c00cdfb070010079800210798001e009000a0
:10185c00ae009000020024001343240008fc070093
:10186c0002002200434b240066fb0700300798005f
:10187c00410798003e009000ce00900034fc070019
:10188c00000f78001e007800a6ff0700020037004a
:10189c00f06e2000a3ff07000080fa000000060095
:1018ac001400fa00700798007e0090008007b000ca
:1018bc00700798007e009000cf80de0025fb0700ab
:1018cc00000f9800110f98007e0090000000e000bf
:1018dc0007003d0002002000037824000e08900051
:1018ec009e08900047fb0700000f9800110f98000e
:1018fc000e0890009e089000300798004107980051
:10190c003e009000ce00900002002000033724001f
:10191c0099fb070050079800610798005e00900043
:10192c00ee00900002002000f3422400d4fb0700dc
:10193c0002002000f34a240032fb07001007980035
:10194c00210798001e009000ae00900000fc0700dc
:10195c00000f78001e00780072ff07000080fa006c
:10196c00000006001200fa00000f98000e0890000c
:10197c00cf80de00f7fa0700600798007107980027
:10198c006000b80040079800510798006000b8004c
:10199c0020079800310798006000b800008fbe0047
:1019ac006011b8006e009000fe00900003fc070070
:1019bc000000e00001003500130037006e009000bd
:1019cc00fe00900002002000032f24006afb070099
:1019dc0020079800310798002e009000be00900060
:1019ec0002002000031f2400a5fb0700008fbe008f
:1019fc006011b8001e00be0002fb070040079800f3
:101a0c00510798001d0037006011b8006e0090005f
:101a1c00fe009000ebfb07000000e00001003c0022
:101a2c00130037006e009000fe00900002002000b2
:101a3c00032f240050fb0700200798003107980063
:101a4c002e009000be00900002002000031f240016
:101a5c008bfb0700008fbe006011b8001e00be009b
:101a6c00e8fa070040079800510798000300370078
:101a7c006000b80040079800510798004e00900095
:101a8c00de009000020007000080fa000000060053
:101a9c001200fa0070079800010f98000200200055
:101aac00031f24007e0090008e089000c5fb0700e9
:101abc000000e00001003c000500370000002000a1
:101acc00011f240070079800010f98000c003700cc
:101adc0002002000031f2c007e0090008e08900056
:101aec00b6fb07000000e0000100350004003700e1
:101afc0000002000011f2c0070079800010f9800b7
:101b0c006011b8007e0090008e089000adfb0700bd
:101b1c000000e00001003d00080037007e0090004e
:101b2c008e08900002002000031f240012fb070007
:101b3c0020079800310798000e0037006011b8009c
:101b4c007e0090008e0890009cfb07000000e000d7
:101b5c0001003500070037007e0090008e089000d1
:101b6c0002002000031f240003fb0700200798003d
:101b7c00310798006011b8002e009000be00900054
:101b8c0090fb07000000e00001003d000a00370058
:101b9c002e009000be0090000200200003082400dc
:101bac0037fb0700020020000316240095fa0700fb
:101bbc00008fbe00100037006011b8002e0090009e
:101bcc00be0090007dfb07000000e0000100350026
:101bdc00090037002e009000be009000020020008b
:101bec000308240026fb0700020020000316240033
:101bfc0084fa0700008fbe001e00be000200200009
:101c0c00832c2400dcfa0700020025003364240036
:101c1c001bfb07006011b8007afa07004007980018
:101c2c00510798004e009000de00900048fb070022
:101c3c00600798006e009000bafe07000080fa0062
:101c4c00000006000000fa000080fa000000060008
:101c5c000000fa00030007000f0007000080fa00e4
:101c6c00000006000000fa00c8a1a800c0c1bf0017
:101c7c00c040b300c0e1b700210e80000000280076
:101c8c00008060009186210001007000200e880009
:101c9c000080fa00000006000000fa00c1e1a80074
:101cac000080fa00000006000000fa00c1e1a90063
:101cbc000080fa00000006000200fa00000f780015
:101ccc001e007800c00e88000080fa00000006009c
:101cdc001400fa0070079800fe00900080072000a6
:101cec00808f5000310032007e009000cf80de00eb
:101cfc0018fa0700000f9800110f98007e00900052
:101d0c000000e00007003d000200200003782400e2
:101d1c000e0890009e0890003afa0700000f9800f9
:101d2c00110f98000e0890009e0890005007980024
:101d3c00610798006000b8003007980041079800d0
:101d4c006000b80010079800210798005e00900012
:101d5c00ee009000020020000337240086fa0700f2
:101d6c0010079800210798001e009000ae0090000c
:101d7c000200280023472400c1fa070002002000bb
:101d8c00f34a24001ffa0700300798004107980017
:101d9c003e009000ce009000edfa0700000f780096
:101dac001e007800c4ff070002003700d075200029
:101dbc00c1ff07000080fa00000006001200fa00c4
:101dcc00000f98000e089000cf80de00e1f90700ac
:101ddc0060079800710798006000b80040079800f1
:101dec00510798006000b800200798003107980050
:101dfc006000b800008fbe006011b8006e0090004b
:101e0c00fe009000edfa07000000e0000100350034
:101e1c00130037006e009000fe00900002002000be
:101e2c00032f240054fa070020079800310798006c
:101e3c002e009000be00900002002000832c240095
:101e4c008ffa0700008fbe006011b8001e00be00a4
:101e5c00ecf9070040079800510798001d00370067
:101e6c006011b8006e009000fe009000d5fa0700db
:101e7c000000e00001003c00130037006e009000f1
:101e8c00fe00900002002000032f24003afa070005
:101e9c0020079800310798002e009000be0090009b
:101eac0002002000832c240075fa0700008fbe006e
:101ebc006011b8001e00be00d2f907004007980060
:101ecc0051079800030037006000b80040079800e5
:101edc00510798004e009000de00900002000700b1
:101eec000080fa00000006001200fa00700798004b
:101efc00010f980002002000832c24007e0090002b
:101f0c008e089000affa07000000e00001003c00d2
:101f1c000500370000002000812c24007007980079
:101f2c00010f98000c00370002002000832c2c00bd
:101f3c007e0090008e089000a0fa07000000e000e0
:101f4c00010035000400370000002000812c2c001b
:101f5c0070079800010f98006011b8007e00900087
:101f6c008e08900097fa07000000e00001003d0089
:101f7c00080037007e0090008e08900002002000c0
:101f8c00832c2400fcf907002007980031079800e7
:101f9c000e0037006011b8007e0090008e08900093
:101fac0086fa07000000e00001003500070037004a
:101fbc007e0090008e08900002002000832c2400ec
:101fcc00edf9070020079800310798006011b80060
:101fdc002e009000be0090007afa07000000e0008e
:101fec0001003d000a0037002e009000be0090005a
:101ffc0002002000030a240021fa0700020020003e
:10200c00031724007ff90700008fbe001000370073
:10201c006011b8002e009000be00900067fa070017
:10202c000000e00001003500090037002e00900090
:10203c00be00900002002000030a240010fa0700e2
:10204c0002002000031724006ef90700008fbe0069
:10205c001e00be0002002000832c2400c6f90700dd
:10206c00020025003364240005fa07006011b80053
:10207c0064f9070040079800510798004e00900043
:10208c00de00900032fa0700600798006e009000a6
:10209c0009ff07000080fa00000006000400fa00a7
:1020ac00008fbe000080fa00000006000800fa0055
:1020bc001007980021079800320798000000eb00e9
:1020cc00000f78000000eb00000f780006003700ce
:1020dc009e0078002e009000808040000040eb00b5
:1020ec00804878001e0fe8003e0090009e0f5000c4
:1020fc00f7ff3e002e0090000080fa000000060062
:10210c001800fa0050079800610798000f0078003b
:10211c00300f98000f007800700798000000eb005b
:10212c00300798000000eb00200798000000eb003f
:10213c00100798006e009000000040000000e800be
:10214c000000e8000000d100000040008f00780083
:10215c00210f980080874700ae0890000100e8002e
:10216c000000d10000004000200f98002e089000c5
:10217c00400798000000eb00000f780021003700aa
:10218c00be0090005e0090000080400090407800ff
:10219c00f0c2b30080cf500014003400be00900099
:1021ac005e009000008040009040780090c3b30027
:1021bc0080cf50000d003c00be019000be0090008e
:1021cc005e00900000804000104078008000fb0012
:1021dc0000fd2f000080400000017800ce00900030
:1021ec000380410002b07800030037002e009000fd
:1021fc000000e800200798003e0090000000e80076
:10220c0030079800be0090005e00900000804000f7
:10221c00104078000004e000d9ff3a000000eb0009
:10222c00100798000b0037001e0078006a00b900f8
:10223c00000178001e009000ce00900000004000cd
:10224c0060807800000f41001e0090000000e80044
:10225c0010079800be0090002e0090008080500067
:10226c001e009000808f5000efff3e001e00780093
:10227c00cf80de00b7f80700000f9800110f980010
:10228c001e00e00007003d0002002000037824003f
:10229c000e0890009e089000daf80700000f9800d6
:1022ac00110f9800fe0790000e0890009e089000f9
:1022bc00be0f90000080fa00000006001400fa0027
:1022cc0050079800610798000f007800100f9800d5
:1022dc000f007800700798000000eb0030079800a2
:1022ec000000eb00200798000000eb00100798009e
:1022fc006e009000000040000000e8000000e800c4
:10230c000000d100000040008f007800010f980001
:10231c00808747008e0890000100e8000000d10083
:10232c0000004000000f98000e0890004007980035
:10233c000000eb00000f780021003700be00900079
:10234c005e0090000080400090407800f0c2b30026
:10235c0080cf500014003400be0090005e0090004e
:10236c00008040009040780090c3b30080cf5000b4
:10237c000d003c00be019000be0090005e0090007d
:10238c0000804000104078008000fb0000fd2f0012
:10239c000080400000017800ce00900003804100d6
:1023ac0002b07800030037002e0090000000e80017
:1023bc00200798003e0090000000e80030079800cd
:1023cc00be0090005e00900000804000104078003d
:1023dc000004e000d9ff3a000000eb001007980061
:1023ec000b0037001e0078006a00b900000178006d
:1023fc001e009000ce00900000004000608078002d
:10240c00000f41001e0090000000e800100798002b
:10241c00be0090002e009000808050001e009000a6
:10242c00808f5000efff3e001e007800fe079000ea
:10243c009e0f90000080fa00000006000000fa00d9
:10244c0087e0a9000080fa0000400600809fbe00d3
:10245c00829fbe000400fa0032c2bf0064406000dc
:10246c000004e0000100320033c2bf0032c2bf00e2
:10247c00684060000004e0000100320033c2bf007d
:10248c0032c2bf00624060000004e0000100320074
:10249c0033c2bf0032c2bf00614060000004e000e4
:1024ac000100320033c2bf00b0118000104588001b
:1024bc00504880000000e0007c003a00114580008c
:1024cc0010042000808f500008003a0070488000f3
:1024dc000000e00005003a00100020007048880061
:1024ec0010002000604888007000370060488000b1
:1024fc006101b8000080eb008080eb00020140001d
:10250c0083814800028fbe00d00020000100200013
:10251c001e01be00800f5100818f590063003e00e8
:10252c001e00be00006001000d00370010003700d7
:10253c0013003700180037001d0037002200370049
:10254c00270037002c0037003100370036003700e9
:10255c003b00370040003700450037004a00370089
:10256c00604880000000e800604888004f00370099
:10257c00604880000000e800604888004b0037008d
:10258c001045800080488800604880000000e8000a
:10259c00604888004500370010458000904888004e
:1025ac00604880000000e800604888003f00370069
:1025bc0010458000a0488800604880000000e800ba
:1025cc00604888003900370010458000b04888000a
:1025dc00604880000000e800604888003300370045
:1025ec0010458000c0488800604880000000e8006a
:1025fc00604888002d00370010458000d0488800c6
:10260c00604880000000e800604888002700370020
:10261c001045800000498800604880000000e800f8
:10262c006048880021003700104580001049880060
:10263c00604880000000e800604888001b003700fc
:10264c0010458000e0488800604880000000e800e9
:10265c00604888001500370010458000f04888005d
:10266c00604880000000e800604888000f003700d8
:10267c001045800020498800604880000000e80078
:10268c0060488800090037001045800030498800f8
:10269c0010002000504888000000eb0070488800b3
:1026ac00604880000000e8006048880087c0a900ee
:1026bc000080fa004f01be004f00be000040060033
:1026cc000a00fa00300798004107980062f90700e9
:1026dc0087c0a90087c0a900b0f32f0064f90700d8
:1026ec003e019000ce01900000102e000100200051
:1026fc00800f5100818f59000e003e003e0090006b
:10270c00ce0090004409dd00cc01de008301710095
:10271c004401dd0000a02500212620007df70700e4
:10272c000000e9002007980000402c0010079800da
:10273c000d0037003e009000ce0090004209dd00f5
:10274c00ce01de00830171004201dd0000a02500f6
:10275c00212620006ff707000000e90020079800f1
:10276c0080402c0010079800d0752100000f7800d5
:10277c002e0190009e0078001e00900065f9070065
:10278c0000a8210061002000fe0107000080fa0073
:10279c00000006000200fa00000f78001e0078000e
:1027ac00a01188000080fa00000006000400fa0066
:1027bc00d10107006e000700a401070000002000f3
:1027cc0001e42300d3f90700b9f9070000202c001d
:1027dc00110020001001070000202c001100200027
:1027ec00b7ff07001afd0700b4fb0700d0752000e7
:1027fc0031fd0700f06e2000cafb0700100020001e
:10280c00100798000000eb00000f78000000370064
:10281c00404980000000e90010407800e8e8b7006b
:10282c00404880000000e90010407800e9e8b7005b
:10283c001e0090000000e000040032003002200076
:10284c00d4ff07000000eb0010079800e04980005f
:10285c000000e0003c00320010002000c7f9070027
:10286c0020002000c5f9070030002000c3f9070044
:10287c0040002000c1f9070010002000affa07004b
:10288c00d047880020002000acfa0700e047880001
:10289c0030002000a9fa0700f04788004000200013
:1028ac00a6fa070000488800804880000f01070046
:1028bc00904880000d010700a04880000b01070024
:1028cc00b048800009010700c048800007010700dc
:1028dc00d048800005010700004980000301070073
:1028ec001049800001010700e0488000ff0007004c
:1028fc00f0488000fd00070020498000fb00070025
:10290c0030498000f90007000000eb0050488800b7
:10291c000000eb00000f7800d0478000f3000700a8
:10292c00e0478000f1000700f0478000ef0007004f
:10293c0000488000ed000700d0002000eb000700ed
:10294c000000eb00e0498800504980000000e000e6
:10295c00afff32008049800096fb07009049800051
:10296c00dbfc07000000eb0050498800a8ff370093
:10297c000000fa000000eb00100488008680a9001b
:10298c009680a80087a0a90097a0a8000000eb00e3
:10299c0040168800c842a900c862a800c802a90055
:1029ac00c822a800c8e2a800c9a2a800c8a2a80012
:1029bc00c9e2a800c922a800c902a8002c83a8005b
:1029cc002ca3a8002c43a8002c63a800113a80006b
:1029dc00f00b2000008160006104200070052000d5
:1029ec00237420008149780080497800824978005e
:1029fc00416a20009140780000ceb30000c0600016
:102a0c003040b300a4e6b700216c20009140780060
:102a1c0000ceb30000c060003040b300c2e6b70087
:102a2c00616a20009140780000ceb30000c06000c5
:102a3c000004a000a6e6b700016c200091407800cd
:102a4c0000ceb30000c060005040b300c0e6b70039
:102a5c00c16920009140780000ceb30000c0600036
:102a6c007040b3009ce6b700d1692000914078001b
:102a7c0000ceb30000c060000034a0009de6b7009b
:102a8c00016a20009140780000ceb30000c06000c5
:102a9c00d040b300a0e6b700116a20009140780046
:102aac0000ceb30000c060009040b300a1e6b700b8
:102abc00116820009140780000ceb30000c0600087
:102acc005040b30081e6b7002168200091407800a7
:102adc0000ceb30000c06000f040b30082e6b70047
:102aec00113a800000042000008170006104200075
:102afc0070052000237420008149780080497800fb
:102b0c008249780000a82100610020001d01070007
:102b1c000080fa00000006000000fa008580a90081
:102b2c000080fa0000400600809fbe000200fa0000
:102b3c0022c2bf00644060000004e00001003200cb
:102b4c0023c2bf0022c2bf00684060000004e00046
:102b5c000100320023c2bf0022c2bf0062406000ed
:102b6c000004e0000100320023c2bf0022c2bf00fb
:102b7c00614060000004e0000100320023c2bf008d
:102b8c003011800080428800504980000000e00035
:102b9c001d003a0081428000a00f2000808f500061
:102bac0003003a000000eb00604988001600370073
:102bbc0060498000000f78001e0078000000e000e3
:102bcc00040032001e007800e10f500007003200b4
:102bdc000d003700804280008049880060498000e9
:102bec000000e80060498800070037008042800040
:102bfc0090498800100020005049880060498000ee
:102c0c000000e800604988008560a9000080fa0097
:102c1c004f00be00004006000a00fa003007980082
:102c2c0041079800d7f707008560a9008580a900a7
:102c3c00b0f32f00d9f707003e019000ce019000b1
:102c4c0000102e0001002000800f5100818f5900d0
:102c5c000e003e003e009000ce0090004409dd00c6
:102c6c00cc01de00830171004401dd0000a02500d1
:102c7c002126200027f607000000e9002007980015
:102c8c0000402c00100798000d0037003e0090000b
:102c9c00ce0090004209dd00ce01de008301710000
:102cac004201dd0000a025002126200019f60700b6
:102cbc000000e9002007980080402c0010079800c5
:102ccc00d0752100000f78002e0190009e00780036
:102cdc001e009000dcf7070000a821006100200016
:102cec00a80007000080fa00000006000200fa00ad
:102cfc00000f780023c2bf00624060000004e000b7
:102d0c00fcff3a001e007800201188000080fa00b9
:042d1c0000000600ad
:020000040000fa
:102d2000e408000024000000020000000000010090
:102d30000000000000000000000000000000000093
:102d40000000000000000000000000000000000083
:102d50000000000088ff00000000000028090000bb
:102d60000c0000000200000000080000000200004b
:102d700000000000000000000008000052000000f9
:102d80000000000008090000200000000200000010
:102d900052080000000000000000000000000000d9
:102da0000000000000000000000000000000000023
:102db00000000000000000000000000052080000b9
:102dc0005200000000000000a408000040000000c5
:102dd00002000000000000000000000000000000f1
:102de000000041000000000000fa0000fa00fa00b4
:102df00000fa00000000000000168c00ca3d000030
:102e000000000000000000000000000000000000c2
:102e100000000000000000000000000000000000b2
:102e20000000000000000000000000003409000065
:102e3000080000000000000042090000020000003d
:102e400002000000000000003c0900000600000035
:082e500000000000000000007a
:020000040000fa
:102e58000000fa00a0ff2f00faf70700f04f21004a
:102e6800100888000000eb000bf8070070382100fc
:102e7800004a8800014a8000d0fa2f0008f80700ad
:102e88000080fa0000000600801f78003400f80077
:102e980000002000a00188000000fa00f04980002e
:102ea800f70f500008003a00e04980000000e000f9
:102eb80005003a0010002000e04988000000eb00ff
:102ec800f049880006003700e04980000000e00073
:102ed80003003a00f04980000000e800f04988004b
:102ee80010002000104a880084e0a9000080fa0041
:102ef8003400f9004f007800004006000000fa0096
:102f080090022000303a880044c7bf00f043b20066
:102f180044e7b700417420009140780000ceb30028
:102f280000c0600044e7b7001200200081072000bd
:102f3800a009200033742000814978008049780076
:102f480082497800120020006104200070052000ea
:102f580023742000814978008049780082497800ec
:102f680043c7bf000047b200f04f5000fcff3a00d3
:102f780042c7bf000042b2000004e000fcff32007c
:102f88000080fa0000000600f03fb1000180b100a7
:102f980006003500ee03090000000000403fb100c4
:102fa8000180b100fbff3d001000b000203fb000e1
:102fb8000200350000800900000000000000060043
:020000040000fa
:042fc8000000fe0007
:00000001FF
